:040EA6007EBDDBE74B
:100AAA007FE87E03120E867508007509FAD3E509F8
:100ABA009400E50894004015AF09AE081208F674D0
:100ACA00CE2509F50974FF3508F50880E075080098
:100ADA007509FAD3E5099400E50894004015AF09B1
:100AEA00AE081209D074CE2509F50974FF3508F548
:100AFA000880E07F3C7E00120E867F147E0012087A
:100B0A00F67F3C7E00120E867F147E001209D07F8B
:100B1A003C7E00120E867F0A7E00120B7D7F3C7E91
:100B2A0000120E86120E557F3C7E00120E86120CA3
:100B3A00247F3C7E00120E86120DF37F3C7E00124B
:100B4A000E86120C7D7F3C7E00120E86120E2C122F
:100B5A000DB97F3C7E00120E86120CD57F3C7E00BA
:100B6A00120E86120D7E7F3C7E00120E86120D2A10
:030B7A00020AAAC2
:0E0E7800AF03AE02120E8675A07FAF03AE026E
:100E8600EF4E600F7D027CEFDCFEDDFCEF1F70F0A5
:030E96001E80EDCE
:010E99002236
:100E5500E4F580F590F5A0F5B07F587E02120E8678
:100E65007580FF7590FF75A0FF75B0FF7F587E02F6
:030E7500020E86E4
:1008F600AB07AA0675907F120E827590BF120E8204
:100906007590DF120E827590EF120E827590F712B7
:100916000E827590FB120E827590FD120E827590F6
:10092600FE120E827590FF120E827580FE120E82E6
:100936007580FD120E827580FB120E827580F7128D
:100946000E827580EF120E827580DF120E82758020
:10095600BF120E8275807F120E827580FF120E788E
:1009660075A0BF120E8275A0DF120E8275A0EF125F
:100976000E8275A0F7120E8275A0FB120E8275A06C
:10098600FD120E8275A0FE120E8275A0FF120E8257
:1009960075B07F120E8275B0BF120E8275B0DF126F
:1009A6000E8275B0EF120E8275B0F7120E8275B018
:1009B600FB120E8275B0FD120E8275B0FE120E820B
:0A09C60075B0FFAF03AE02020E860B
:1009D000AB07AA0675B0FE120E8275B0FD120E822C
:1009E00075B0FB120E8275B0F7120E8275B0EF1261
:1009F0000E8275B0DF120E8275B0BF120E8275B016
:100A00007F120E8275B0FF120E8275A0FE120E824A
:100A100075A0FD120E8275A0FB120E8275A0F71252
:100A20000E8275A0EF120E8275A0DF120E8275A0E5
:100A3000BF120E7875A0FF120E8275807F120E8293
:100A40007580BF120E827580DF120E827580EF12E4
:100A50000E827580F7120E827580FB120E827580F1
:100A6000FD120E827580FE120E827580FF120E82BC
:100A70007590FE120E827590FD120E827590FB121B
:100A80000E827590F7120E827590EF120E8275909D
:100A9000DF120E827590BF120E8275907F120E8249
:0A0AA0007590FFAF03AE02020E8650
:100B7D00AB07AA0675907F75B0FE120E827590BFF9
:100B8D0075B0FD120E827590DF75B0FB120E827579
:100B9D0090EF75B0F7120E827590F775B0EF120EDB
:100BAD00827590FB75B0DF120E827590FD75B0BF2A
:100BBD00120E827590FE75B07F120E827590FF75C4
:100BCD00B0FF120E827580FD75A0FD120E8275802C
:100BDD00FE75A0FE120E827580FB75A0FB120E82B3
:100BED007580F775A0F7120E827580EF75A0EF1264
:100BFD000E827580DF75A0DF120E827580BF75A025
:100C0D00BF120E8275807F120E7F7580FF75A0FF5B
:070C1D00AF03AE02020E86D8
:100C2400E4FBA80374FF088002C333D8FCFFF580FB
:100C34008F90A80374FF088002C333D8FCFFF5A08B
:100C44008FB07F507E00120E860BBB05D57B05A8A6
:100C54000374FF088002C333D8FCFFF5808F90A88B
:100C64000374FF088002C333D8FCFFF5A08FB07F64
:080C7400507E00120E86DBD752
:010C7C002255
:100C7D00E4FBEB5407FFF87401088002C333D8FC82
:100C8D00F4F580EB24025407FFF87401088002C3C9
:100C9D0033D8FCF4F590EB24045407FFF8740108E5
:100CAD008002C333D8FCF4F5A0EB24065407FFF8FB
:100CBD007401088002C333D8FCF4F5B07F507E0078
:070CCD00120E860BBB08AB01
:010CD40022FD
:100DF300E4FB7580AA7590AA75A05575B0557FC898
:100E03007E00120E8675805575905575A0AA75B033
:100E1300AA7FC87E00120E860BBB03D67580FF75B2
:080E230090FF75A0FF75B0FF00
:010E2B0022A4
:100E2C00E4FBE4F580F590F5A0F5B07F64FE120EBE
:100E3C00867580FF7590FF75A0FF75B0FF7F647E8F
:080E4C0000120E860BBB03DA55
:010E5400227B
:100DB900E4FBA8037418088002C313D8FCF4F58077
:100DC900F590A8037418088002C333D8FCF4F5A081
:100DD900F5B07F787E00120E860BBB04D57580FFB7
:090DE9007590FF75A0FF75B0FFC5
:010DF20022DE
:100CD500E4FBA8037480088002C313D8FCF4F580F4
:100CE500EB24025407FFF87480088002C313D8FC74
:100CF500F4F590EB24045407FFF87480088002C3D0
:100D050013D8FCF4F5A0EB24065407FFF87480080B
:100D15008002C313D8FCF4F5B07F967E00120E86D0
:040D25000BBB08AE4E
:010D290022A7
:100D7E00E4FBE4F5807590FFF5A075B0FFEB75F020
:100D8E0014A42464FFE435F0FE120E867580FFE491
:100D9E00F59075A0FFF5B0EB75F014A42464FFE494
:0A0DAE0035F0FE120E860BBB06C8DE
:010DB8002218
:100D2A00780A7C007D007BFF7A0E79A67E007F041C
:100D3A001208D0E4FB740A2BF8E6F580EB0454039E
:100D4A00240AF8E6F590EB24025403240AF8E6F59F
:100D5A00A0EB24035403240AF8E6F5B07FC87E000A
:100D6A00120E860BBB04CE7580FF7590FF75A0FF2F
:030D7A0075B0FF52
:010D7D002253
:03000000020E9A53
:0C0E9A00787FE4F6D8FD75810D020AAAED
:10080000E709F608DFFA8046E709F208DFFA803EDA
:1008100088828C83E709F0A3DFFA8032E309F608C7
:10082000DFFA8078E309F208DFFA807088828C832F
:10083000E309F0A3DFFA806489828A83E0A3F608E3
:10084000DFFA805889828A83E0A3F208DFFA804CBD
:1008500080D280FA80C680D4806980F28033801094
:1008600080A680EA809A80A880DA80E280CA8033FD
:1008700089828A83ECFAE493A3C8C582C8CCC58375
:10088000CCF0A3C8C582C8CCC583CCDFE9DEE78045
:100890000D89828A83E493A3F608DFF9ECFAA9F0C4
:1008A000EDFB2289828A83ECFAE0A3C8C582C8CC1A
:1008B000C583CCF0A3C8C582C8CCC583CCDFEADE33
:1008C000E880DB89828A83E493A3F208DFF980CC95
:1008D00088F0EF60010E4E60C388F0ED2402B4048E
:1008E0000050B9F582EB2402B4040050AF23234535
:0608F00082239008507302
:00000001FF
