:0A0FD5007EBDDBE7FF0CF37E9F3FBB
:10094B007FE87E03120FB57508007509FAD3E50928
:10095B009400E50894004015AF09AE08120A3274F2
:10096B00CE2509F50974FF3508F50880E0750800F8
:10097B007509FAD3E5099400E50894004015AF0911
:10098B00AE08120B0C74CE2509F50974FF3508F56A
:10099B000880E07F3C7E00120FB57F147E00120AA8
:1009AB00327F3C7E00120FB57F147E00120B0C7F42
:1009BB003C7E00120FB57F0A7E00120BE67F3C7E59
:1009CB0000120FB5120F847F3C7E00120FB5120D73
:1009DB00007F3C7E00120FB5120F227F3C7E00126F
:1009EB000FB5120D597F3C7E00120FB5120F5B1223
:1009FB000EE87F3C7E00120FB5120DB17F3C7E00DE
:100A0B00120FB5120EAD7F3C7E00120FB5120E0603
:100A1B007F3C7E00120FB5120C8D7F3C7E00120FB7
:040A2B00B5120E5A98
:030A2F0002094B6E
:0E0FA700AF03AE02120FB575A07FAF03AE020E
:100FB500EF4E600F7D027CEFDCFEDDFCEF1F70F075
:030FC5001E80ED9E
:010FC8002206
:100F8400E4F580F590F5A0F5B07F587E02120FB518
:100F94007580FF7590FF75A0FF75B0FF7F587E02C6
:030FA400020FB584
:100A3200AB07AA0675907F120FB17590BF120FB166
:100A42007590DF120FB17590EF120FB17590F7121A
:100A52000FB17590FB120FB17590FD120FB1759029
:100A6200FE120FB17590FF120FB17580FE120FB119
:100A72007580FD120FB17580FB120FB17580F712F0
:100A82000FB17580EF120FB17580DF120FB1758053
:100A9200BF120FB175807F120FB17580FF120FA7C1
:100AA20075A0BF120FB175A0DF120FB175A0EF12C2
:100AB2000FB175A0F7120FB175A0FB120FB175A09F
:100AC200FD120FB175A0FE120FB175A0FF120FB18A
:100AD20075B07F120FB175B0BF120FB175B0DF12D2
:100AE2000FB175B0EF120FB175B0F7120FB175B04B
:100AF200FB120FB175B0FD120FB175B0FE120FB13E
:0A0B020075B0FFAF03AE02020FB59D
:100B0C00AB07AA0675B0FE120FB175B0FD120FB18E
:100B1C0075B0FB120FB175B0F7120FB175B0EF12C3
:100B2C000FB175B0DF120FB175B0BF120FB175B048
:100B3C007F120FB175B0FF120FB175A0FE120FB17D
:100B4C0075A0FD120FB175A0FB120FB175A0F712B5
:100B5C000FB175A0EF120FB175A0DF120FB175A018
:100B6C00BF120FA775A0FF120FB175807F120FB1C6
:100B7C007580BF120FB17580DF120FB17580EF1247
:100B8C000FB17580F7120FB17580FB120FB1758024
:100B9C00FD120FB17580FE120FB17580FF120FB1EF
:100BAC007590FE120FB17590FD120FB17590FB127E
:100BBC000FB17590F7120FB17590EF120FB17590D0
:100BCC00DF120FB17590BF120FB175907F120FB17C
:0A0BDC007590FFAF03AE02020FB5E3
:100BE600AB07AA0675907F75B0FE120FB17590BF60
:100BF60075B0FD120FB17590DF75B0FB120FB175B0
:100C060090EF75B0F7120FB17590F775B0EF120F40
:100C1600B17590FB75B0DF120FB17590FD75B0BF61
:100C2600120FB17590FE75B07F120FB17590FF75FA
:100C3600B0FF120FB17580FD75A0FD120FB1758062
:100C4600FE75A0FE120FB17580FB75A0FB120FB1E9
:100C56007580F775A0F7120FB17580EF75A0EF12CA
:100C66000FB17580DF75A0DF120FB17580BF75A05B
:100C7600BF120FB175807F120FAE7580FF75A0FF92
:070C8600AF03AE02020FB53F
:100D0000E4FBA80374FF088002C333D8FCFFF5801E
:100D10008F90A80374FF088002C333D8FCFFF5A0AE
:100D20008FB07F507E00120FB50BBB05D57B05A899
:100D30000374FF088002C333D8FCFFF5808F90A8AE
:100D40000374FF088002C333D8FCFFF5A08FB07F87
:080D5000507E00120FB5DBD745
:010D58002278
:100D5900E4FBEB5407FFF87401088002C333D8FCA5
:100D6900F4F580EB24025407FFF87401088002C3EC
:100D790033D8FCF4F590EB24045407FFF874010808
:100D89008002C333D8FCF4F5A0EB24065407FFF81E
:100D99007401088002C333D8FCF4F5B07F507E009B
:070DA900120FB50BBB08ABF4
:010DB0002220
:100F2200E4FB7580AA7590AA75A05575B0557FC867
:100F32007E00120FB575805575905575A0AA75B0D3
:100F4200AA7FC87E00120FB50BBB04D67580FF7551
:080F520090FF75A0FF75B0FFD0
:010F5A002274
:100F5B00E4FBE4F580F590F5A0F5B07FC8FE120F29
:100F6B00B57580FF7590FF75A0FF75B0FF7FC87ECC
:080F7B0000120FB50BBB03DAF5
:010F8300224B
:100EE800E4FBA8037418088002C313D8FCF4F58047
:100EF800F590A8037418088002C333D8FCF4F5A051
:100F0800F5B07F787E00120FB50BBB04D57580FF56
:090F18007590FF75A0FF75B0FF94
:010F210022AD
:100DB100E4FBA8037480088002C313D8FCF4F58017
:100DC100EB24025407FFF87480088002C313D8FC97
:100DD100F4F590EB24045407FFF87480088002C3F3
:100DE10013D8FCF4F5A0EB24065407FFF87480082F
:100DF1008002C313D8FCF4F5B07F967E00120FB5C4
:040E01000BBB08AE71
:010E050022CA
:100EAD00E4FBE4F5807590FFF5A075B0FFEB75F0F0
:100EBD0014A42464FFE435F0FE120FB57580FFE431
:100ECD00F59075A0FFF5B0EB75F014A42464FFE464
:0A0EDD0035F0FE120FB50BBB06C87E
:010EE70022E8
:100E0600780A7C007D007BFF7A0F79D57E007F040F
:100E16001208D0E4FB740A2BF8E6F580EB045403C1
:100E2600240AF8E6F590EB24025403240AF8E6F5C2
:100E3600A0EB24035403240AF8E6F5B07FC87E002D
:100E4600120FB50BBB04CE7580FF7590FF75A0FF22
:030E560075B0FF75
:010E59002276
:100C8D00780A7C007D007BFF7A0F79D97E007F0684
:100C9D001208D0E4FB740A2BF8E6F580EB2401FF73
:100CAD00E433FE7C007D061208F6740A2DF8E6F595
:100CBD0090EB2402FFE433FE7C007D061208F674EF
:100CCD000A2DF8E6F5A0EB2403FFE433FE7C007D4E
:100CDD00061208F6740A2DF8E6F5B07F967E00121E
:100CED000FB50BBB06AF7580FF7590FF75A0FF7537
:020CFD00B0FF46
:010CFF0022D2
:100E5A00E4FB758080E4F590F5A0F5B07FC8FE123A
:100E6A000FB5E4F580759080F5A0F5B07FC8FE1245
:100E7A000FB5E4F580F59075A080F5B07FC8FE1235
:100E8A000FB5E4F580F590F5A075B0807FC8FE1225
:100E9A000FB50BBB03BC7580FF7590FF75A0FF757E
:020EAA00B0FF97
:010EAC002223
:03000000020FC923
:0C0FC900787FE4F6D8FD75810F02094B1B
:10080000E709F608DFFA8046E709F208DFFA803EDA
:1008100088828C83E709F0A3DFFA8032E309F608C7
:10082000DFFA8078E309F208DFFA807088828C832F
:10083000E309F0A3DFFA806489828A83E0A3F608E3
:10084000DFFA805889828A83E0A3F208DFFA804CBD
:1008500080D280FA80C680D4806980F28033801094
:1008600080A680EA809A80A880DA80E280CA8033FD
:1008700089828A83ECFAE493A3C8C582C8CCC58375
:10088000CCF0A3C8C582C8CCC583CCDFE9DEE78045
:100890000D89828A83E493A3F608DFF9ECFAA9F0C4
:1008A000EDFB2289828A83ECFAE0A3C8C582C8CC1A
:1008B000C583CCF0A3C8C582C8CCC583CCDFEADE33
:1008C000E880DB89828A83E493A3F208DFF980CC95
:1008D00088F0EF60010E4E60C388F0ED2402B4048E
:1008E0000050B9F582EB2402B4040050AF23234535
:0608F00082239008507302
:1008F600BC000BBE0029EF8DF084FFADF022E4CCE6
:10090600F875F008EF2FFFEE33FEEC33FCEE9DECAE
:10091600984005FCEE9DFE0FD5F0E9E4CEFD22EDF4
:10092600F8F5F0EE8420D21CFEADF075F008EF2F3E
:10093600FFED33FD4007985006D5F0F222C398FD2F
:050946000FD5F0EA22CC
:00000001FF
