:04063D007EBDDBE7BC
:100348007FE87E0312061D1200F97F3C7E0012062C
:100358001D1201CF7F3C7E0012061D1202A57F3CB4
:100368007E0012061D1205EC7F3C7E0012061D124F
:1003780003BB7F3C7E0012061D12058A7F3C7E006F
:1003880012061D1204147F3C7E0012061D1205C3BE
:100398001205507F3C7E0012061D12046C7F3C7EC5
:1003A8000012061D1205157F3C7E0012061D120460
:0303B800C1808D74
:0E060F007F327E0012061D75A07F7F327E00B6
:10061D00EF4E600F7D027CEFDCFEDDFCEF1F70F016
:03062D001E80ED3F
:0106300022A7
:1005EC00E4F580F590F5A0F5B07FF47E0112061DC0
:1005FC007580FF7590FF75A0FF75B0FF7FF47E01CD
:03060C0002061DC6
:1000F90075907F1206197590BF1206197590DF1257
:1001090006197590EF1206197590F7120619759070
:10011900FB1206197590FD1206197590FE12061943
:100129007590FF1206197580FD1206197580FE1269
:1001390006197580FB1206197580F7120619758064
:10014900EF1206197580DF1206197580BF1206199C
:1001590075807F1206197580FF12060F75A0BF12F0
:10016900061975A0DF12061975A0EF12061975A0F8
:10017900F712061975A0FB12061975A0FE120619C9
:1001890075A0FD12061975A0FF12061975B07F1228
:10019900061975B0BF12061975B0DF12061975B0C8
:1001A900EF12061975B0F712061975B0FB12061988
:1001B90075B0FD12061975B0FE12061975B0FF7FEC
:0601C900327E0002061D5B
:1001CF0075B0FE12061975B0FD12061975B0FB1247
:1001DF00061975B0F712061975B0EF12061975B03A
:1001EF00DF12061975B0BF12061975B07F12061906
:1001FF0075B0FF12061975A0FD12061975A0FE1233
:10020F00061975A0FB12061975A0F712061975A02D
:10021F00EF12061975A0DF12061975A0BF12060F8F
:10022F0075A0FF12061975807F1206197580BF120F
:10023F0006197580DF1206197580EF120619758081
:10024F00F71206197580FB1206197580FE12061932
:10025F007580FD1206197580FF1206197590FE1232
:10026F0006197590FD1206197590FB1206197590F7
:10027F00F71206197590EF1206197590DF1206190D
:10028F007590BF12061975907F1206197590FF7F32
:06029F00327E0002061D84
:1002A50075907F75B0FE1206197590BF75B0FD1279
:1002B50006197590DF75B0FB1206197590EF75B0CC
:1002C500F71206197590F775B0EF1206197590FBC0
:1002D50075B0DF1206197590FD75B0BF1206197558
:1002E50090FE75B07F1206197590FF75B0FF120666
:1002F500197580FD75A0FD1206197580FE75A0FEA5
:100305001206197580FB75A0FB1206197580F77525
:10031500A0F71206197580EF75A0EF120619758002
:10032500DF75A0DF1206197580BF75A0BF1206190B
:1003350075807F1206167580FF75A0FF7F327E00DF
:0303450002061D90
:1003BB00E4FBA80374FF088002C333D8FCFFF5806D
:1003CB008F90A80374FF088002C333D8FCFFF5A0FD
:1003DB008FB07F507E0012061D0BBB05D57B05A889
:1003EB000374FF088002C333D8FCFFF5808F90A8FD
:1003FB000374FF088002C333D8FCFFF5A08FB07FD6
:08040B00507E0012061DDBD734
:0104130022C6
:10041400E4FBEB5407FFF87401088002C333D8FCF3
:10042400F4F580EB24025407FFF87401088002C33A
:1004340033D8FCF4F590EB24045407FFF874010856
:100444008002C333D8FCF4F5A0EB24065407FFF86C
:100454007401088002C333D8FCF4F5B07F507E00E9
:0704640012061D0BBB08ABE3
:01046B00226E
:10058A00E4FB7580AA7590AA75A05575B0557FC809
:10059A007E0012061D75805575905575A0AA75B016
:1005AA00AA7FC87E0012061D0BBB03D67580FF7595
:0805BA0090FF75A0FF75B0FF72
:0105C2002216
:1005C300E4FBE4F580F590F5A0F5B07F64FE120638
:1005D3001D7580FF7590FF75A0FF75B0FF7F647E6A
:0805E3000012061D0BBB03DA38
:0105EB0022ED
:10055000E4FBA8037418088002C313D8FCF4F580E8
:10056000F590A8037418088002C333D8FCF4F5A0F2
:10057000F5B07F787E0012061D0BBB04D57580FF99
:090580007590FF75A0FF75B0FF36
:01058900224F
:10046C00E4FBA8037480088002C313D8FCF4F58065
:10047C00EB24025407FFF87480088002C313D8FCE5
:10048C00F4F590EB24045407FFF87480088002C341
:10049C0013D8FCF4F5A0EB24065407FFF87480087D
:1004AC008002C313D8FCF4F5B07F967E0012061DB3
:0404BC000BBB08AEC0
:0104C0002219
:10051500E4FBE4F5807590FFF5A075B0FFEB75F091
:1005250014A42464FFE435F0FE12061D7580FFE473
:10053500F59075A0FFF5B0EB75F014A42464FFE405
:0A05450035F0FE12061D0BBB06C8C0
:01054F002289
:1004C10078087C007D007BFF7A06793D7E007F0401
:1004D1001200D3E4FB74082BF8E6F580EB04540317
:1004E1002408F8E6F590EB240254032408F8E6F515
:1004F100A0EB240354032408F8E6F5B07FC87E007E
:1005010012061D0BBB04CE7580FF7590FF75A0FF11
:0305110075B0FFC3
:0105140022C4
:03000000020631C4
:0C063100787FE4F6D8FD75810B020348C9
:10000300E709F608DFFA8046E709F208DFFA803EDF
:1000130088828C83E709F0A3DFFA8032E309F608CC
:10002300DFFA8078E309F208DFFA807088828C8334
:10003300E309F0A3DFFA806489828A83E0A3F608E8
:10004300DFFA805889828A83E0A3F208DFFA804CC2
:1000530080D280FA80C680D4806980F28033801099
:1000630080A680EA809A80A880DA80E280CA803302
:1000730089828A83ECFAE493A3C8C582C8CCC5837A
:10008300CCF0A3C8C582C8CCC583CCDFE9DEE7804A
:100093000D89828A83E493A3F608DFF9ECFAA9F0C9
:1000A300EDFB2289828A83ECFAE0A3C8C582C8CC1F
:1000B300C583CCF0A3C8C582C8CCC583CCDFEADE38
:1000C300E880DB89828A83E493A3F208DFF980CC9A
:1000D30088F0EF60010E4E60C388F0ED2402B40493
:1000E3000050B9F582EB2402B4040050AF2323453A
:0600F3008223900053730C
:00000001FF
