:0A0941007EBDDBE7FF0CF37E9F3F55
:100428007FF47E01120921750E00750F3CD3E50F8C
:100438009400E50E94004015AF0FAE0E1200037441
:10044800F6250FF50F74FF350EF50E80E0750E00DA
:10045800750F3CD3E50F9400E50E94004015AF0FDF
:10046800AE0E12017074F6250FF50F74FF350EF5F8
:100478000E80E07F3C7E001209217F327E00120050
:10048800037F3C7E001209217F327E001201707FBB
:100498003C7E001209217F327E001205177F3C7EC8
:1004A800001209211206797F3C7E001209211208E8
:1004B8009B7F3C7E001209211206D27F3C7E0012EF
:1004C80009211208D41208617F3C7E00120921120A
:1004D800072A7F3C7E001209211208267F3C7E00F5
:1004E80012092112077F7F3C7E001209211206069D
:1004F8007F3C7E001209211207D37F3C7E0012093F
:0F050800211208FD7F647E0012092102042822BF
:10092100EF4E600F7D027CEFDCFEDDFCEF1F7001FE
:030931001E80ED38
:0109340022A0
:1008FD007580FF7590FF75A0FF75B0FF7F587E0264
:10090D00120921E4F580F590F5A0F5B07F587E022F
:04091D001209212278
:10000300AB07AA0675907FAF03AE02120921759064
:10001300BFAF03AE021209217590DFAF03AE021228
:1000230009217590EFAF03AE021209217590F7AF66
:1000330003AE021209217590FBAF03AE0212092130
:100043007590FDAF03AE021209217590FEAF03AEAA
:10005300021209217590FFAF03AE021209217580C8
:10006300FEAF03AE021209217580FDAF03AE02128B
:1000730009217580FBAF03AE021209217580F7AF2A
:1000830003AE021209217580EFAF03AE02120921FC
:100093007580DFAF03AE021209217580BFAF03AED7
:1000A3000212092175807FAF03AE02120921758008
:1000B300FFAF03AE0212092175A07FAF03AE021298
:1000C300092175A0BFAF03AE0212092175A0DFAFEE
:1000D30003AE0212092175A0EFAF03AE021209218C
:1000E30075A0F7AF03AE0212092175A0FBAF03AEF3
:1000F3000212092175A0FDAF03AE0212092175A0FA
:10010300FEAF03AE0212092175A0FFAF03AE0212C8
:10011300092175B07FAF03AE0212092175B0BFAFDD
:1001230003AE0212092175B0DFAF03AE021209213B
:1001330075B0EFAF03AE0212092175B0F7AF03AE8E
:100143000212092175B0FBAF03AE0212092175B08B
:10015300FDAF03AE0212092175B0FEAF03AE02126A
:0D016300092175B0FFAF03AE021209212281
:10017000AB07AA0675B0FEAF03AE0212092175B037
:10018000FDAF03AE0212092175B0FBAF03AE021240
:10019000092175B0F7AF03AE0212092175B0EFAFB8
:1001A00003AE0212092175B0DFAF03AE02120921BE
:1001B00075B0BFAF03AE0212092175B07FAF03AEB9
:1001C0000212092175B0FFAF03AE0212092175A01A
:1001D000FEAF03AE0212092175A0FDAF03AE0212FD
:1001E000092175A0FBAF03AE0212092175A0F7AF7C
:1001F00003AE0212092175A0EFAF03AE021209216E
:1002000075A0DFAF03AE0212092175A0BFAF03AE28
:100210000212092175A07FAF03AE0212092175A059
:10022000FFAF03AE0212092175807FAF03AE021249
:1002300009217580BFAF03AE021209217580DFAFBF
:1002400003AE021209217580EFAF03AE021209213D
:100250007580F7AF03AE021209217580FBAF03AEC4
:10026000021209217580FDAF03AE021209217580CB
:10027000FEAF03AE021209217580FFAF03AE02127A
:1002800009217590FEAF03AE021209217590FDAFF2
:1002900003AE021209217590FBAF03AE02120921D1
:1002A0007590F7AF03AE021209217590EFAF03AE60
:1002B000021209217590DFAF03AE02120921759079
:1002C000BFAF03AE0212092175907FAF03AE0212D9
:0D02D00009217590FFAF03AE021209212233
:10051700AB07AA0675907F75B0FEAF03AE0212094E
:10052700217590BF75B0FDAF03AE0212092175901A
:10053700DF75B0FBAF03AE021209217590EF75B0FE
:10054700F7AF03AE021209217590F775B0EFAF034D
:10055700AE021209217590FB75B0DFAF03AE021230
:1005670009217590FD75B0BFAF03AE021209217561
:1005770090FE75B07FAF03AE021209217590FF752B
:10058700B0FFAF03AE021209217580FD75A0FDAF64
:1005970003AE021209217580FE75A0FEAF03AE02FD
:1005A7001209217580FB75A0FBAF03AE021209216A
:1005B7007580F775A0F7AF03AE021209217580EFBA
:1005C70075A0EFAF03AE021209217580DF75A0DFBA
:1005D700AF03AE021209217580BF75A0BFAF03AE8E
:1005E7000212092175807F75A07FAF03AE02120941
:0F05F700217580FF75A0FFAF03AE02120921220C
:10067900E4FBA80374FF088002C333D8FCFFF580AC
:100689008F90A80374FF088002C333D8FCFFF5A03C
:100699008FB07F507E001209210BBB05D57B05A8C1
:1006A9000374FF088002C333D8FCFFF5808F90A83C
:1006B9000374FF088002C333D8FCFFF5A08FB07F15
:0806C900507E00120921DBD76D
:0106D1002206
:1006D200E4FBEB5407FFF87401088002C333D8FC33
:1006E200F4F580EB24025407FFF87401088002C37A
:1006F20033D8FCF4F590EB24045407FFF874010896
:100702008002C333D8FCF4F5A0EB24065407FFF8AB
:100712007401088002C333D8FCF4F5B07F507E0028
:070722001209210BBB08AB1B
:0107290022AD
:10089B00E4FB7580AA7590AA75A05575B0557FC8F5
:1008AB007E0012092175805575905575A0AA75B0FB
:1008BB00AA7FC87E001209210BBB04D67580FF7579
:0808CB0090FF75A0FF75B0FF5E
:0108D3002202
:1008D400E4FBE4F580F590F5A0F5B07FC8FE1209BD
:1008E400217580FF7590FF75A0FF75B0FF7FC87EEE
:0808F400001209210BBB03DA1D
:0108FC0022D9
:10086100E4FBA8037418088002C313D8FCF4F580D4
:10087100F590A8037418088002C333D8FCF4F5A0DE
:10088100F5B07F787E001209210BBB04D57580FF7E
:090891007590FF75A0FF75B0FF22
:01089A00223B
:10072A00E4FBA8037480088002C313D8FCF4F580A4
:10073A00EB24025407FFF87480088002C313D8FC24
:10074A00F4F590EB24045407FFF87480088002C380
:10075A0013D8FCF4F5A0EB24065407FFF8748008BC
:10076A008002C313D8FCF4F5B07F967E00120921EB
:04077A000BBB08AEFF
:01077E002258
:10082600E4FBE4F5807590FFF5A075B0FFEB75F07D
:1008360014A42464FFE435F0FE1209217580FFE458
:10084600F59075A0FFF5B0EB75F014A42464FFE4F1
:0A08560035F0FE1209210BBB06C8A5
:010860002275
:10077F0078087C007D007BFF7A0979417E007F0439
:10078F001203ADE4FB74082BF8E6F580EB04540379
:10079F002408F8E6F590EB240254032408F8E6F554
:1007AF00A0EB240354032408F8E6F5B07FC87E00BD
:1007BF001209210BBB04CE7580FF7590FF75A0FF4A
:0307CF0075B0FF03
:0107D2002204
:1006060078087C007D007BFF7A0979457E007F06AD
:100616001203ADE4FB74082BF8E6F580EB2401FF2A
:10062600E433FE7C007D061203D374082DF8E6F54C
:1006360090EB2402FFE433FE7C007D061203D374A4
:10064600082DF8E6F5A0EB2403FFE433FE7C007DDD
:10065600061203D374082DF8E6F5B07F967E0012D5
:1006660009210BBB06AF7580FF7590FF75A0FF755E
:02067600B0FFD3
:01067800225F
:1007D300E4FB758080E4F590F5A0F5B07FC8FE12C8
:1007E3000921E4F580759080F5A0F5B07FC8FE126D
:1007F3000921E4F580F59075A080F5B07FC8FE125D
:100803000921E4F580F590F5A075B0807FC8FE124C
:1008130009210BBB03BC7580FF7590FF75A0FF75A5
:02082300B0FF24
:0108250022B0
:03000000020935BD
:0C093500787FE4F6D8FD75810F020428DD
:1002DD00E709F608DFFA8046E709F208DFFA803E03
:1002ED0088828C83E709F0A3DFFA8032E309F608F0
:1002FD00DFFA8078E309F208DFFA807088828C8358
:10030D00E309F0A3DFFA806489828A83E0A3F6080B
:10031D00DFFA805889828A83E0A3F208DFFA804CE5
:10032D0080D280FA80C680D4806980F280338010BC
:10033D0080A680EA809A80A880DA80E280CA803325
:10034D0089828A83ECFAE493A3C8C582C8CCC5839D
:10035D00CCF0A3C8C582C8CCC583CCDFE9DEE7806D
:10036D000D89828A83E493A3F608DFF9ECFAA9F0EC
:10037D00EDFB2289828A83ECFAE0A3C8C582C8CC42
:10038D00C583CCF0A3C8C582C8CCC583CCDFEADE5B
:10039D00E880DB89828A83E493A3F208DFF980CCBD
:1003AD0088F0EF60010E4E60C388F0ED2402B404B6
:1003BD000050B9F582EB2402B4040050AF2323455D
:0603CD00822390032D7352
:1003D300BC000BBE0029EF8DF084FFADF022E4CC0E
:1003E300F875F008EF2FFFEE33FEEC33FCEE9DECD7
:1003F300984005FCEE9DFE0FD5F0E9E4CEFD22ED1D
:10040300F8F5F0EE8420D21CFEADF075F008EF2F66
:10041300FFED33FD4007985006D5F0F222C398FD57
:050423000FD5F0EA22F4
:00000001FF
